:020000040800F2
:100000000020002065730008B1300008B7300008F8
:1000100000000000000000000000000000000000E0
:10002000000000000000000000000000BD300008DB
:100030000000000000000000C7300008D1300008B8
:10004000B5730008B5730008B5730008B5730008F0
:10005000B5730008B5730008B5730008B5730008E0
:10006000B5730008B5730008B5730008B5730008D0
:10007000B5730008B573000800000000DD3000080B
:1000800000000000B5730008000000000000000040
:10009000B573000800000000B5730008B5730008D0
:1000A000B5730008B5730008B5730008B573000890
:1000B000F5300008B5730008B5730008B573000883
:1000C00010B5064C2378002B07D1054B002B02D02E
:1000D000044800E000BF0123237010BDF0010020A0
:1000E0000000000008BF0008044B10B5002B03D02F
:1000F0000349044800E000BF10BDC04600000000F6
:10010000F401002008BF000802780B78002A03D011
:10011000013001319A42F7D0D01A70470023C25CF7
:100120000133002AFBD1581E7047000002B471460B
:1001300049084900095C49008E4402BC7047C0462A
:1001400003B47146490840004900095E49008E44E5
:1001500003BC7047002243088B4274D303098B42CF
:100160005FD3030A8B4244D3030B8B4228D3030C87
:100170008B420DD3FF22090212BA030C8B4202D329
:100180001212090265D0030B8B4219D300E0090A51
:10019000C30B8B4201D3CB03C01A5241830B8B425A
:1001A00001D38B03C01A5241430B8B4201D34B0343
:1001B000C01A5241030B8B4201D30B03C01A5241A8
:1001C000C30A8B4201D3CB02C01A5241830A8B422D
:1001D00001D38B02C01A5241430A8B4201D34B0216
:1001E000C01A5241030A8B4201D30B02C01A52417A
:1001F000CDD2C3098B4201D3CB01C01A524183092E
:100200008B4201D38B01C01A524143098B4201D367
:100210004B01C01A524103098B4201D30B01C01A92
:100220005241C3088B4201D3CB00C01A524183080C
:100230008B4201D38B00C01A524143088B4201D339
:100240004B00C01A5241411A00D201465241104699
:100250007047FFE701B5002000F0F0F802BDC0468E
:100260000029F7D076E7704703460B437FD400227E
:1002700043088B4274D303098B425FD3030A8B423A
:1002800044D3030B8B4228D3030C8B420DD3FF22A4
:10029000090212BA030C8B4202D31212090265D072
:1002A000030B8B4219D300E0090AC30B8B4201D325
:1002B000CB03C01A5241830B8B4201D38B03C01A6C
:1002C0005241430B8B4201D34B03C01A5241030BE3
:1002D0008B4201D30B03C01A5241C30A8B4201D394
:1002E000CB02C01A5241830A8B4201D38B02C01A3F
:1002F0005241430A8B4201D34B02C01A5241030AB6
:100300008B4201D30B02C01A5241CDD2C3098B429A
:1003100001D3CB01C01A524183098B4201D38B0117
:10032000C01A524143098B4201D34B01C01A5241BA
:1003300003098B4201D30B01C01A5241C3088B42FF
:1003400001D3CB00C01A524183088B4201D38B00EA
:10035000C01A524143088B4201D34B00C01A52418C
:10036000411A00D201465241104670475DE0CA0F63
:1003700000D04942031000D34042534000229C4623
:1003800003098B422DD3030A8B4212D3FC2289012D
:1003900012BA030A8B420CD3890192118B4208D303
:1003A000890192118B4204D389013AD0921100E065
:1003B0008909C3098B4201D3CB01C01A5241830979
:1003C0008B4201D38B01C01A524143098B4201D3A6
:1003D0004B01C01A524103098B4201D30B01C01AD1
:1003E0005241C3088B4201D3CB00C01A524183084B
:1003F0008B4201D38B00C01A5241D9D243088B42A1
:1004000001D34B00C01A5241411A00D20146634643
:1004100052415B10104601D34042002B00D54942A7
:10042000704763465B1000D3404201B5002000F0E6
:1004300005F802BD0029F8D016E770477047C0469E
:100440008446100062468C461900634600E0C046B0
:100450001FB501F065FB002801D40021C8421FBD73
:1004600010B501F0B5FA4042013010BD10B501F0F1
:1004700057FB002801DB002010BD012010BDC04645
:1004800010B501F04DFB002801DD002010BD01205A
:1004900010BDC04610B501F0DDFA002801DC0020D7
:1004A00010BD012010BDC04610B501F0D3FA0028E0
:1004B00001DA002010BD012010BDC046002B11D173
:1004C000002A0FD1002900D1002802D00021C94301
:1004D000080007B4024802A14018029003BDC046BC
:1004E0005DFFFFFF03B4684601B5029800F0A4F871
:1004F000019B9E4602B00CBC7047C046F0B5CE468C
:10050000474680B5070099463B0C9C4613041B0CDC
:100510001D000E0061460004140C000C45434B43C3
:1005200060436143C0182C0C20188C46834203D9C9
:1005300080235B029846C444494679437243030CC6
:1005400063442D042D0CC918000440198918C0BC3F
:10055000B946B046F0BDC04670B500220C4B040051
:100560000D00FFF7A1FF002804D12000290002F0B0
:1005700057F970BD064B00222000290001F0A0FDB4
:1005800002F04EF980231B069C466044F1E7C0460A
:100590000000E04170B505000C0000220023280097
:1005A0002100FFF763FF002808D12800210000F098
:1005B0000FF802000B001000190070BD80231B060D
:1005C000E118280000F004F8002342428B41F2E7D2
:1005D00070B500220B4B0D00040001F005FBFFF786
:1005E000BBFF060002F082F90022074B01F0FCFA83
:1005F00002000B002000290001F062FDFFF7ACFFB4
:10060000310070BD0000F03D0000F04170B5060003
:10061000080002F03BF90022064B01F0E5FA0D005C
:100620000400300002F062F92B00220000F09EFB73
:1006300070BDC0460000F041F0B557464E464546F5
:10064000DE46E0B504000D009246994683B08B4229
:1006500030D82DD04946504602F05CFA29000600F9
:10066000200002F057FA331A9846203B9B4633D4B9
:100670005A465346934042461F00534693401E003D
:10068000AF423AD8AF4200D178E05B46A41BBD41EF
:10069000002B00DA75E00022002300920193012371
:1006A0005A4693400193012342469340009328E029
:1006B0008242CFD900220023009201930C9B002B91
:1006C00001D01C605D600098019903B0F0BCBB468E
:1006D000B246A946A046F0BD424620239B1A524688
:1006E000DA40414613004A468A40170042461F43FB
:1006F000534693401E00AF42C4D90022002300920B
:1007000001934346002BD9D0FB0772081A43464693
:100710007B080EE0AB4201D1A2420CD8A41A9D4145
:10072000012024196D410021013E24184D41002E65
:1007300006D0AB42EED9013E24196D41002EF8D10E
:10074000009801995B4600196941002B24DB2B00BE
:100750005A464446D3402A00E2401C005B4615003E
:10076000002B2ADB26009E40330026004746BE4071
:100770003200801A9941009001919FE7A342BCD8B2
:1007800083E74246202300219B1A00220091019218
:100790000122DA40019286E7424620239B1A2A0072
:1007A00046469A402300F340444613432A00E24061
:1007B0001C005B461500002BD4DA42462F00202394
:1007C000260097409B1ADE403B003343CDE7C046EE
:1007D000F0B54F464646D6464502C0B547000C1C0C
:1007E0006D0A3F0EC60F002F00D170E0FF2F00D121
:1007F00075E0EB008025ED041D43002399469A46E1
:100800007F3F6002430A984663001B0EE40F002BF3
:100810004ED0FF2B46D04246D0008022D204024365
:10082000904600227F3B3100FF1A4B466140C9B21F
:1008300013430F2B00D9B5E06E489B00C3589F4669
:10084000002398462600454692465346022B00D187
:1008500089E0032B00D19EE0012B18D03B007F33B1
:10086000002B69DD6A0704D00F222A40042A00D039
:1008700004352A0103D5604B1D403B008033FE2B1D
:1008800000DD70E0AD016D0AD8B202E00E0000207C
:100890000025C0052843F6073043E0BCBA46B14600
:1008A000A846F0BD4346002B3FD10222FF3F03E0A4
:1008B0004346002B2DD1012231004B466140C9B285
:1008C00013430F2B34D84D489B00C3589F46002D2F
:1008D00013D104239946033B00279A4691E7002D44
:1008E00005D108239946063BFF279A4689E70C2342
:1008F0009946093BFF279A4683E7280002F0ECF867
:100900007627431F9D4000237F4299469A463F1A0F
:1009100077E7404602F0E0F84246431F9A407623CC
:100920005B4290461B1A00227DE7FF2303227AE7F1
:100930000E00FF200025ACE70120C01A1B28A6DC12
:100940009E372A00BD40C2406B1E9D4115436B0778
:1009500004D00F232B40042B00D004356B0144D569
:100960000120002595E7FF20002592E7802500263D
:10097000FF20ED038DE7002398468020C003054249
:1009800009D04346034206D1454605436D02260081
:10099000FF206D0A7DE78020C00305436D02FF2024
:1009A0006D0A76E742466B015001834219D21B2241
:1009B0000025013F01261C006D005B00002C01DBBF
:1009C000984201D81B1A3543013A002AF3D15A1E26
:1009D00093411D433B007F330E00002B00DD41E7B8
:1009E000AAE71A2201251B1AE4E7AD0100206D0ACF
:1009F0004FE7C046C4C00008FFFFFFF704C100086E
:100A0000F0B54F464646D64644024500C0B5640A96
:100A10000F1C2D0EC60F002D00D18DE0FF2D00D133
:100A200092E00023802099469A46E400C0040443E3
:100A30007F3D7802430A98467B001B0EFF0F002B78
:100A400000D170E0FF2B00D186E04246D00080222A
:100A50007F3BED180023D204024390469C463100B0
:100A60004B467940681C0F2B1CD8764A9B00D35804
:100A70009F4639004446E2465346022B0FD0032BD3
:100A800000D1D7E0012B37D100200024C00520433E
:100A9000C9070843E0BCBA46B146A846F0BDFF20EE
:100AA0000024F3E7260C2404220C44462404240CDE
:100AB000434627001B0C574374435A435E431219A5
:100AC0003B0C9B189C4203D98022520294466644F8
:100AD0003F041A043F0CD2199401671EBC411B0C41
:100AE000920E9B1914439B011C431B0100D49BE0F5
:100AF000012362081C40144302007F32002A64DD97
:100B0000630704D00F232340042B00D004342301B7
:100B100003D502004C4B80321C40FE2ABFDCA401EE
:100B2000640AD0B2B2E74346002B3DD14A460133B6
:100B30001A4391469C4692E7002C29D104239946FA
:100B4000033B00259A4674E7002C1BD108239946E5
:100B5000063BFF259A466CE74346FF35002B0BD139
:100B600002234A461A4391469C4678E75346310091
:100B7000022B00D083E792E703234A461A439146AB
:100B80009C466CE70C239946093BFF259A4650E7A3
:100B9000200001F0A1FF7625431F9C4000236D42F9
:100BA00099469A462D1A44E7404601F095FF424681
:100BB000431F9A4000232D1A90469C46763D4EE7EF
:100BC00080240021FF20E40360E701239B1A1B2BF4
:100BD00000DD59E722009E30DA4084401300621E97
:100BE00094411C43630704D00F232340042B00D0FF
:100BF000043463011AD50120002447E78020C00394
:100C0000044209D04346034206D1444604436402E9
:100C10003900FF20640A39E78020C00304436402DE
:100C20003100FF20640A31E7280065E7A4010020B5
:100C3000640A2BE78020C00304436402FF20640A97
:100C400024E7C04644C10008FFFFFFF7F8B50028BD
:100C500013D0C317C6185E40C40F300001F03CFF2C
:100C60009E2305001B1A962B0FDC082801DD083D8A
:100C7000AE407602760AD8B202E0002400200026B8
:100C8000C0053043E4072043F8BD992B0CDD052255
:100C90003100121AD1400A00010030001B31884097
:100CA000411E884102431600052D12DC31000D4F14
:100CB0003940720709D00F203040042805D0043194
:100CC0004A0102D59F2339405B1B89014E0AD8B2E5
:100CD000D6E76A1F96403100024F39407207F4D0C0
:100CE000E9E7C046FFFFFFFB70B5051E0ED001F01F
:100CF000F3FE9E2304001B1A962B0CDC082801DD52
:100D0000083CA5406D026D0AD8B201E00020002524
:100D1000C005284370BD992B09DD020029001B3254
:100D200091404A1E91410522121AD5400D43052CCF
:100D300012DC29000C4E31406A0709D00F202840F0
:100D4000042805D004314A0102D59F2331401B1BE2
:100D500089014D0AD8B2DBE7621F95402900024E97
:100D600031406A07F4D0E9E7FFFFFFFBF0B54F46DB
:100D70004646D6460D000400C0B51F0011002803EA
:100D8000620F400A10437A00520DE3003C03914683
:100D9000640AFA0F4F0F6E0027439246B846760D4D
:100DA000ED0FC900954200D199E04C46341BA44692
:100DB000002C00DC7CE04A46002A00D1B8E0C54A9D
:100DC000964200D11CE180223C0012041443A0464C
:100DD0006246382A00DD61E11F2A00DDCCE164466D
:100DE0002022121B444694400F00A14664469140C5
:100DF000E7404C464A1E91413C43424621436446EB
:100E0000E240801A5C1AA3429B415F42C71B3B022F
:100E100000D4D0E07F027F0A002F00D1FFE038002D
:100E200001F05AFE01000839202322005B1A8F408E
:100E3000DA408C401743B14200DAFFE0891B4B1CBB
:100E40001F2B00DDA8E020223900D21A2000944098
:100E50009140D840621E9441DF40002601430C437C
:100E6000630709D00F232340042B05D0231DA34281
:100E7000A44164423F191C003B0200D49EE0954B04
:100E800001369E4200D1B7E0934AE40817407B0741
:100E900071057F0223433F0B4A0D12053A43ED07CC
:100EA0002A4318001100E0BCBA46B146A846F0BD7E
:100EB000002C4BD04C46A41BA446002E00D023E1AE
:100EC00004001C4300D1AFE16246541E012A00D148
:100ED00015E2804DAC4500D1C8E1A4461BE14A466D
:100EE000B21A9446002A00DCACE04A46002A43D0FD
:100EF000784A964200D1AFE180223C0012041443AC
:100F0000A0466246382A67DC1F2A00DC5FE14746BC
:100F1000203AD7406246202A05D064464022121B60
:100F20004446944021434A1E91410C003C4357E003
:100F30003A000A4300D105E12200013A012C00D118
:100F400082E1644CA4455BD0944641E7634C771C36
:100F5000274200D0C4E004001C43002E00D069E109
:100F6000002C00D1BFE144460C4300D0D0E1420741
:100F7000DB081343C00829E03A000A4300D170E1BE
:100F800062466446013A012C00D1E0E0514CA44590
:100F900000D161E19446B4E73A001F39CA4011001C
:100FA000202B03D04022D31A9F403C43631E9C4118
:100FB000002700260C43630700D053E7B446E4083B
:100FC0007B072343F808434A94451DD06246070334
:100FD00052053F0B520D60E744460C43621E94419C
:100FE000E4189C429B415F423F183B02E3D5394BDA
:100FF00001369E4200D0B5E03200002700234CE7C6
:101000004207DB081343C0081A00024300D1E1E1A4
:1010100080273F0307433F032E4A3F0B3DE7200055
:1010200001F05AFD010018311F2900DCFCE60838E8
:10103000844027000024B14200DBFFE6264A761AEE
:1010400017400DE7002A2FD04A46921B9446002EE7
:1010500000D1ADE01F4A914500D10FE1802212047A
:1010600010436246382A00DD0FE11F2A00DD80E1CF
:10107000644620221E00121B6746040093409440E1
:10108000FE405A1E9341F84034431C438044641888
:101090008C42BF417F424E464744A6E742460A4340
:1010A00011004A1E9141ADE60C4C721C224200D048
:1010B000A1E002001A43002E00D0FAE0002A00D17D
:1010C00045E13A000A4300D046E14207DB081343FA
:1010D000C0087BE7FF070000FFFF7FFFFE0700005F
:1010E00047465C1AC21BA342BF417F42B946170064
:1010F0004A46BF1A3A0200D58DE023003B4300D098
:101100008AE60020002561E7B44CA14500D1ADE09E
:101110008024240420436446382C3DDC62461F2C86
:1011200000DDB7E020251E002D1B0400AB40AC40C5
:10113000D640D04042465D1EAB413443121A904621
:1011400023432CE04207DB081343C0083BE75C184D
:101150009C429B4140445B42C71801263B0200D49D
:1011600029E702269E4A63081740012214401C43C7
:10117000FB071C437F0873E64446203AD44062468E
:10118000202A05D067464022D21B47469740394364
:101190004A1E9141214335E60343581E8341CC1A30
:1011A000A142BF4143467F4255464E46DF1B2EE6D5
:1011B00002001A4300D1BDE062466446013A012CA8
:1011C00000D1E5E0854CA44558D0944649E76446F3
:1011D0002022121B444694400F00A14664469140D1
:1011E000E7404C464A1E91413C4342460C4361460F
:1011F000CA408018F4E6794CA24200D1FDE65918A5
:1012000099429B4140445F42C719FC0749081600B8
:101210000C437F08CFE6CC1AA142BF4143467F4230
:10122000181A5546C71BF7E5C9087B0755460B43F7
:10123000F808C8E6002C00D081E043460B4315D1E6
:10124000802000250003E3E65C1AA3429B41C71BF4
:101250005B420126FF1ADAE54207DB081343C008A8
:10126000D2E64207DB081343C008ACE643464246D9
:10127000C9085B0755460B43D008C5E643464246BE
:101280005B07C9080B43D008BEE603431C00631E7E
:101290009C41FCE60200203CE24014006246202A09
:1012A00003D04025AD1AA8400343581E8341234371
:1012B00075E7002AE2D03A000A43CDD04207DB08A6
:1012C00013438022C0081203104206D0FC081442C7
:1012D00003D12000CB087A0713435A0FDB005207D3
:1012E000DB08134390E643460B4300D109E743462E
:1012F0004246C9085B0755460B43D00866E6CC1A40
:10130000A14289413F1A4942554601267F1A7EE58E
:1013100042465C1A871AA34292415242BF1A3A02CD
:101320003DD5CC1AA1428941434649421F1A554630
:101330007F1A95E57B07C9080B43F80843E6444646
:10134000DB080C4330D142071343C0085CE67B073F
:10135000C9080B43F80839E65C189C429B4140449D
:101360005B42C7183B0200D425E61D4B01261F40F7
:1013700021E60400203AD4406246202A04D04022CC
:101380006646921B904003435A1E93411C437EE6DF
:101390005C188C428941404449424718DDE62300ED
:1013A0003B4300D1ADE606E6440723438024C00852
:1013B0002403204208D04246D608264204D155468E
:1013C0003000CB0851070B435A0FDB00DB085207F4
:1013D000134319E60023014A1F005EE5FF070000E2
:1013E000FFFF7FFFF0B557464E464546DE46E0B567
:1013F000814605000C03480092461F0085B0240B6F
:10140000400DCE0F002800D156E1D44B984200D1B8
:1014100072E16B0FE4001C4380231B0423439846B6
:10142000CF4BED009B4600239946834400933C0339
:101430007B005046240B5B0DFF0F002B00D11FE1FA
:10144000C64A934200D162E1C549420F8C46E4008E
:1014500059461443802263441204CB1A14439B461A
:10146000C200002033007B409A464B460F2B27D802
:10147000BC499B00CB589F46B246009B022B16D01E
:10148000032B00D18EE2012B00D0D9E000230024F1
:10149000002552461B052343D20713432800190099
:1014A00005B0F0BCBB46B246A946A046F0BD00243C
:1014B0000025AA4BEDE7BA46A04615000090DCE7F0
:1014C000444500D2C7E100D1C2E101235B429C4602
:1014D0002E0040460025E3442302140E1C431B0C3F
:1014E000994623041F0C1202494600920197FEF709
:1014F000B7FE02007A430B04310C804619438A423E
:1015000007D901235B429C460919E0448C4200D86C
:1015100007E2881A4946FEF7A3FE09048C46310407
:101520006646019A090C4243030031438A4204D9BA
:101530000919013B8C4200D8EDE1881A4246120499
:101540001A4390464146009B0E041B0C1F00029359
:10155000009B360C1B04190C0B007343120C7E43CA
:10156000039151437A431F0CBC4676186644B1423E
:1015700003D9802149028C466244310C8A18310417
:101580001E04360C8E19904202D312D1B54210D2ED
:101590004346591E009B9C4665441F009D429B414B
:1015A0005B421B19C018844200D2A0E100D19BE12C
:1015B0008846AE1BB542AD41801A6D42401B844245
:1015C00000D1D5E14946FEF74BFE019A0B04424398
:1015D000310C050019438A4200D96CE1881A49464A
:1015E000FEF73EFE019A360442430904360C03001E
:1015F0000E43B24200D953E10398B61A02002D04FB
:101600001D43029F2B041B0C5A437B439C46290C11
:101610004843130C844463447943984203D980209F
:10162000400284466144180C12041B04120C411839
:101630009B188E4200D2FFE000D1FAE001231D4347
:10164000494A5A44002A00DCAAE06B0700D03DE179
:10165000ED084346DB0106D54246444B1A4090460E
:101660008022D2005A44424B9A4200DD1FE7434693
:101670005B071D43434652055C02240B530D08E7EC
:101680005246224300D17BE0002C00D1FAE020003A
:1016900001F022FA02000B3A1D2301009B1A524668
:1016A0000839DA408C40144352468A40314B584442
:1016B0009B4683440020D5E64B462343984644D0BE
:1016C000002C00D1CEE0200001F006FA010002005B
:1016D0000B391D235B1A49461000D9400838844055
:1016E0000B004D462343984685402348831A9B466A
:1016F0000023994600939AE64B46234398461DD112
:1017000008239946063B0025834600938FE6524600
:10171000224309D1022349461943184B89469C4666
:1017200000240220E3449DE603234A461A43134B58
:1017300091469C4652460320E34493E60C23994687
:10174000093BA0468346009371E604239946002393
:101750009B4601330025009369E6C046FF07000061
:1017600001FCFFFF84C10008FF030000FFFFFFFE34
:10177000FE070000F30300000DFCFFFF01F8FFFF70
:101780004946012319438946002401206AE60023C3
:1017900080249A4600258A4B24037AE601256D426F
:1017A00001239B1A382B00DD70E61F2B00DCBFE005
:1017B0001F2149428A1A4146D1400A00202B04D0F9
:1017C0004146804B5B4499400D436B1E9D4107236E
:1017D0002A431D0000241540134200D1D4E00F21FC
:1017E00000231140042900D1CBE0111D9142924108
:1017F00052429B180A00190200D4C2E001230024BF
:10180000002546E6802341461B03194208D01C42AE
:1018100006D11C432403BA461500694B240B38E655
:101820008024434624031C432403B246644B240B08
:101830002FE6002B00D103E7A619681EA64200D2AE
:101840008DE08E4200D2A3E000D1B3E00500F5E6C2
:10185000AA4200D939E64346DE0758086B081E4302
:10186000ED0739E6484601F037F90100020015316D
:1018700020321C2900DC2CE74B4608388340002529
:10188000984632E701F028F903001A00153220309B
:101890001C2A00DC00E75446083B00229C4005E778
:1018A0003619013BB44200D9A6E6B24200D8A3E6FD
:1018B000831E3619A0E60919013D8C4200D98DE638
:1018C0008A4200D88AE6851E091987E60F232B4035
:1018D000042B00D1BCE605235B42AB429B4104359F
:1018E0005B42ED089844B4E6AF4200D960E682421C
:1018F00004D800D05CE6AE4200D859E602235B4231
:101900009C46009BE0449C4665449D429B415B4253
:101910001B19C0184DE68A4200D80EE6831E09192D
:101920000BE68A4200D8F4E5831E98460919F0E5D3
:101930002549280059448D4042468A40691E8D4100
:101940004146D840D94002432A430B00510700D1F9
:1019500051E70F211140042900D046E74BE705006D
:101960008E4200D06AE6009A934200D066E667E6AF
:10197000164A5A44002A00DC10E701230025984447
:1019800067E65D075B021C0BD2080023154380E568
:101990000098023D42008242BF417F423C19361905
:1019A0000092DDE78024434624031C432403044BB8
:1019B000240B6EE5009A9A42EAD30500D3E7C046AD
:1019C000FF0700003E0400001E040000FF030000AB
:1019D000F0B54E464546DE4657469046E0B5170000
:1019E0001A03120B0500844619480E034C00914659
:1019F0005A00DB0F9B46360B640DC90F520D844213
:101A000019D0824210D0012094420ED14E450CD103
:101A10000120C44509D1594517D0002C05D130000B
:101A20002843431E984100E00120F0BCBB46B2466B
:101A3000A946A046F0BD330001202B43F5D1A242B8
:101A4000F3D14B463B43F0D1E2E70020EDE7C0463F
:101A5000FF070000F0B54746CE4604001800160008
:101A60001B031B0B2D4D4A00994680B543000F0305
:101A7000A446B0463F0B520DC90F5B0DC00FAA42E2
:101A800021D0AB4213D0002A22D13C43002B02D1FB
:101A90004D462E4322D0002C10D0814222D002206D
:101AA000013908400138C0BCB946B046F0BD4D46CA
:101AB0002E4329D1002AF0D13C43EED10028F2D1A7
:101AC00001204042EFE73D0025431DD19342EED077
:101AD000002BE2D14C462643DFD1E0E70020002C6A
:101AE000E1D0DCE79A420ADCE8DB4F45D7D80ED0DC
:101AF00000204F45D7D20029E2D00800D3E7434267
:101B0000584140000138CEE702204042CBE7C445AF
:101B1000C5D80020C445C6D2EDE7C046FF07000087
:101B2000F0B54746CE460400180016001B031B0BF9
:101B30002C4D4A00994680B543000F03A446B04699
:101B40003F0B520DC90F5B0DC00FAA420DD0AB4227
:101B500010D0002A27D13C43002B11D14D462E43F3
:101B60000ED10020002C15D00EE03D00254310D1F1
:101B7000934218D14D462E430BD1002A02D13C434B
:101B8000002C0BD0814214D00220013908400138CA
:101B900000E00220C0BCB946B046F0BD0028F9D133
:101BA00001204042F6E7002BECD14C462643E9D118
:101BB000EAE79A4204DD4342584140000138E9E730
:101BC0009A42EBDB4F45DFD806D000204F45E1D2EB
:101BD0000029E5D00800DDE7C445D5D80020C4457C
:101BE000D8D2F5E7FF070000F0B557464E46454608
:101BF000DE46E0B598460C034B000600924687B0DF
:101C0000240B5B0DCF0F002B00D15CE1D94A93422E
:101C100000D175E1420FE400144380221204144302
:101C2000D54AC500944663440093002399469B46D9
:101C3000434642461E03D20F5B0050469046360B89
:101C40005B0D00D120E1CB4A934200D162E1CA4949
:101C5000420F8C4600996344F6008C46164380225E
:101C60009C44120463461643C2000020009300996E
:101C7000434601318C4649467B4001930F2926D8C3
:101C8000BE4B890059588F464346019334001500D6
:101C900083465B46022B16D0032B00D103E2012BB7
:101CA00000D0CDE0002200240025019B1205224334
:101CB000DB071A432800110007B0F0BCBB46B24650
:101CC000A946A046F0BD00240025AA4AEDE7280C4D
:101CD0002D042D0C2B00110C1204120C53439846AA
:101CE00013002F00434399464F434F44BB4647469A
:101CF0000B003F0CBA464343DA440293D14504D962
:101D000080277F02B9464B44029353461B0C9B46E7
:101D100053461F0443461B041B0C98463B00434498
:101D20000493330C3604360C9846330043439946EB
:101D3000434643432F009A46434677435D43380C5E
:101D40004D444519A94503D980235B029946CA44ED
:101D50003F04280C3F0C2D04ED19270C2404240CFF
:101D60000300200050437A4391463A0053440593C0
:101D7000030C9A464A43614349445144AB44894564
:101D800003D980235B0299464A4400040B0C000CE3
:101D90000904091820009946434670435C437E437A
:101DA0005F43030C9846A41944444A440397A6424F
:101DB00004D980235B029846474403972304029E7C
:101DC0009A46059B5E449846AE42AD4176188E42D7
:101DD00089410004000C504440446D424719B84604
:101DE000934649428946C344D94498428041A84514
:101DF000AD4193459241894589416D424042284316
:101E0000240C524249420A43039B00198018C71808
:101E10004B46DC0D049B75021D436A1E95414B46E3
:101E2000F60D7F0235435A023C431543FB0100D4B3
:101E30001CE101216A080D401543E20715436408BF
:101E40004F496144002900DCB0E06B0709D00F2244
:101E50002A40042A05D02A1DAA42AD416D426419C8
:101E60001500E30104D58021464AC90014406144AD
:101E7000454A914200DD26E76207ED086402490504
:101E80001543240B4A0D10E75246324300D17FE040
:101E9000002E00D1DCE0300000F01EFE02000B3A04
:101EA0001D2301009B1A52460839DA408E40164322
:101EB00052468A40009B3549181A03008C466344F9
:101EC00000200093D3E6250005434AD0002C00D122
:101ED000B0E0200000F000FE010002000B391D23DD
:101EE00010005B1A3100350008388440D940854025
:101EF0000C432648831A0093002399469B4697E695
:101F00000500254326D10822009302230024914690
:101F10009B468DE65246009B324310D11549002660
:101F20008C466344494600930223194389460220A4
:101F30009DE65B460197022B00D0ADE6C3E60D4A55
:101F40000320944663444A46009303231A43914670
:101F500052468CE60C2200930323050091469B46D3
:101F600066E60423994600230093013300249B4630
:101F70005EE6C046FF07000001FCFFFFC4C1000889
:101F8000FF030000FFFFFFFEFE0700000DFCFFFF48
:101F900049460123194389460026012067E60023AC
:101FA00080240025434A019324037EE60120401A41
:101FB000382800DD76E61F285BDD1F222300524211
:101FC000511ACB401900202803D03B4A6244944068
:101FD00025436A1E95412A000A4307210D0000246B
:101FE000154011425BD00F2100241140042953D029
:101FF000111D914292415242A4180A0023024BD56E
:1020000001220024002550E680231B031C4209D036
:102010001E4207D133431C0343461500240B254AB7
:10202000019342E68022120314432403214A240B25
:1020300001973AE600F050FD010002001531203210
:102040001C2900DC4BE7340008380025844050E7A9
:1020500000F042FD03001A00153220301C2A00DC7B
:102060001EE75646083B00229E4023E7009B9C4605
:10207000E6E61249220061442E008D408A40C640A7
:10208000691E8D4132432A43C4405307B6D00F2105
:1020900011400429ACD1B1E765076402240BD208D2
:1020A0001543002201E68022120314432403014A4F
:1020B000240BFAE5FF0700003E0400001E040000A8
:1020C000F8B557464E464546DE46E0B51E001700B9
:1020D0004A000B03520D5B0A9046420F1A43CD0F84
:1020E000CD4C3103C300944670007A0F490AFF00BB
:1020F0009A46B946400DF60F1143A04200D1B1E017
:1021000001225640B346B54200D188E04246121A39
:10211000002A00DCAEE0002800D1C1E0BE488045C6
:1021200000D151E1802000040143382A00DD7BE129
:102130001F2A00DDEEE120203E00801A0C00D64070
:10214000D140874062468440521A781E87419446A7
:1021500034432743DC1BA3429B4162465B42D31AB4
:1021600099464B461B0200D418E14B465802430ADD
:1021700099464B46002B00D137E1484600F0ACFCB5
:10218000010008392023220048465B1ADA408840C3
:102190008C4043461043884500DD36E1C91A4B1C8C
:1021A0001F2B00DDEAE020222600D21A0100944015
:1021B000DE40D84000239140621E944181469846FB
:1021C00031430C43630709D00F232340042B05D070
:1021D000231DA342A4416442A1441C004B461B02A0
:1021E00000D4DEE041468C4B0131994200D1E7E05A
:1021F0004B468A48E4080340180049055B07400243
:1022000023434A0D040B1205ED0722432A4318000D
:102210001100F0BCBB46B246A946A046F8BD4246F6
:10222000121A002A52DD002800D19CE0A04500D1FE
:10223000CAE0802000040143382A00DD49E11F2A5A
:1022400000DC97E110000E002038C640202A04D0A0
:102250004020821A91400F43B9464C46621E944179
:1022600034433AE10A003A4328D0B346B5422BD072
:102270006B4A4244002A5DD042464446821A002CF2
:1022800000D0F5E065461D4300D19CE1551E012AB2
:1022900000D1FBE1604CA24200D1BDE12A00F0E098
:1022A0000800384300D1C3E0501E012A00D1A8E144
:1022B000594CA24200D187E0020036E70122564085
:1022C000B346B54200D021E7554A4244002A00D126
:1022D000B5E042464446821A002C00D138E14E4E09
:1022E000B04200D1DEE18026644636043443A44681
:1022F000382A00DD96E11F2A00DD24E22026B41AE8
:10230000A24664465646B440A1461C004E46D44000
:10231000264334005646B3405E1EB3411C43634619
:10232000D340C918E419BC42BF417F42B946804638
:102330008944D8E040463B4C0130204200D0B4E014
:102340004046002800D044E16046184300D190E1A7
:102350000800384300D0AAE16146DB0849070B4377
:102360006146CC0827E00800384361D0501E012A9E
:1023700000D139E1A24227D002005DE702001F39F7
:10238000CA401100202B03D04022D31A98400443A6
:10239000631E9C410023994698460C43630700D076
:1023A00012E74B464A46E4085B072343D4084246FB
:1023B00019498A420ED024035205240B520D22E7FC
:1023C0000A00002400231EE7DB086246520713437D
:1023D0006246D4081A00224300D1FCE18022120395
:1023E000144324030C4A240B0DE7200000F074FB77
:1023F000010018311F2900DCC4E608388440434638
:1024000020000024884500DCC8E6044A5B1A10401E
:1024100098468146D6E6C046FF070000FFFF7FFFD3
:1024200001F8FFFFFE0700000F437A1E974191E677
:102430006146DB0849070B436146CC08B8E74046D4
:10244000D34C0130204200D0A2E04046002800D00A
:1024500001E16046184300D15EE10800384300D036
:102460005FE16146DB0849070B436146CC08A2E700
:10247000C84DA84200D1CFE0802564462D042C43EE
:10248000A446382A56DC1F2A00DDD1E020251E0094
:10249000AD1A6446AB40AC40D6405D1EAB41344300
:1024A00023436446D440091B49E06046DC1B461ABE
:1024B000A34280414042814630004E46801B814607
:1024C000000276D44B46234300D052E60024002578
:1024D00071E739430C00621E9441E4189C429B4111
:1024E0005B42634499464B461B0200D456E70123E6
:1024F0009C46A84BE044984538D04B46A64801225C
:1025000003401800630814401C43C3071C434308DE
:10251000994657E610000E002038C640202A04D005
:102520004020821A91400F43B9464F467A1E974188
:1025300037430FE662461A4313005A1E9341FC1AB2
:10254000A742BF417F42CB1B99465D46804608E6C5
:1025500066461E4300D1BEE0561E012A00D109E1A5
:102560008C4CA24200D119E13200C1E6424600245F
:10257000002348E620200C00801A3E00874084405B
:10258000D640781E8741D14034433C438C44A4E775
:10259000804A904200D1E9E0DF199F429B416144AB
:1025A0005B42C918CC077F084B08994680463C43DC
:1025B000F4E6FC1AA742BF4163467F42C91ACB1B0F
:1025C00099465D46D5E5FF084B075D463B43CC0881
:1025D000EEE662461A4300D082E00B003B431BD17B
:1025E000802400252403F9E6DC199C429B416144C8
:1025F00089465B4299444B461B0244D401239846CA
:10260000CCE6DC1B6246A3429B41511A5B42CB1ACB
:10261000994601239846A4E5FF084B075D463B43D6
:10262000CC08D7E662461A431400631E9C4179E643
:1026300015006446203DEC40A046202A05D04025E8
:102640006446AA1A944023439A465446631E9C410A
:102650004346234373E762461A4323D00A003A43B2
:1026600000D0A0E06246DB08520713436246D4085C
:10267000B0E60B003B4300D128E7FF084B075D465F
:102680003B43CC0897E60223984636E7FC1AA7425C
:10269000BF4163467F42C91ACB1B994601235D4661
:1026A00098465EE54B07FF083B43CC0892E6DC1BEF
:1026B0006046A342B641401A7642801B8146000222
:1026C00060D5FC1AA742BF4163467F42C91ACB1BA3
:1026D00099465D4676E5FF084B073B43CC0867E625
:1026E0000A00DB083A4300D16FE662465207134303
:1026F0006246D40880221203144207D0C808104250
:1027000004D15D460400FB0849070B435A0FDB0068
:10271000DB08520713435DE64B07FF083B43CC0839
:1027200049E6DC199C429B41614489465B429944DD
:102730004B461B0200D431E64A46174B1A40012390
:10274000914698462AE616006446203EF440A0468C
:10275000202A05D040266446B21A944023439A4664
:102760005446631E9C4143461C43DBE502000024A3
:10277000002348E5DC19BC42BF41614489467F42E1
:10278000B94438E74B46234300D19FE606E6C046EE
:10279000FE070000FF070000FFFF7FFFFF084B0759
:1027A0003B43CC0816E66246DB08520713436246F9
:1027B000D40880221203144207D0C808104204D162
:1027C0005D460400FB0849070B435A0FDB00520724
:1027D000DB081343FEE50023014A1C0013E5C04655
:1027E000FF07000070B505000C481C0316005B00D5
:1027F0000A034900120B490D240B5B0D814208D0DE
:10280000064A0020934203D120003043431E9841E2
:1028100070BD01202A43FBD1F2E7C046FF0700004C
:102820000A0030B5134C530009030500090B0020C2
:102830005B0DD20FA34204DD0F48834202DD0F4B34
:10284000D01830BD8020400301430D48C01A1F2816
:1028500008DD0C48C31AD9400B005842002AF0D1B9
:102860001800EEE7084CC540A446634499400B00AD
:102870002B43F2E7FE0300001D040000FFFFFF7F73
:102880003304000013040000EDFBFFFF70B50028C7
:1028900016D0C317C5185D40C40F280000F01CF9FE
:1028A000114A121A0A2816DC03002E0015339E4026
:1028B0000B23181AC54052052D032D0B530D03E0B1
:1028C00000240023002500261B052B43E407234397
:1028D0003000190070BD0B38854052052D030026CD
:1028E0002D0B530DF0E7C0461E04000010B5041E6A
:1028F00010D000F0F1F80F4B1B1A0A2811DC0B2244
:102900002100121AD14015300A035B058440120BD6
:102910005B0D01E0002300221B051343200019007A
:1029200010BD22000B3882405B0512030024120BFD
:102930005B0DF1E71E04000070B543004602C40FB2
:10294000FE201B0E591C750A08420CD0E022920092
:1029500094466D07360B63441B053343E40723435A
:102960002800190070BD002B14D1002D1BD02800A9
:1029700000F0B2F80A281CDC0B232E001B1ADE40E4
:10298000030015339D400E4A3603121A5205360BCA
:10299000530DE1E7002D09D08022360B1203094BBD
:1029A0006D071643D8E700230026D5E70026054B20
:1029B000D2E703000B3B9D402E000025E3E7C04615
:1029C00089030000FF07000002004B00F0B55B0D1B
:1029D0000C033D4E640A400F5F1CC90F0443D50031
:1029E00037420AD039481E18FE2E16DDFF2000247B
:1029F000C0052043C9070843F0BD002B06D12C4376
:102A000026D005229201540AD8B2F1E72543EDD031
:102A10008020C0030443FF20EAE7002E1BDD920163
:102A2000531E9A41E4006D0F22432A43530748D0B6
:102A30000F231340042B00D004328023DB04134007
:102A40003FD0701CFE2ED1D09201540AC0B2CFE705
:102A500000200024CCE73200173222DB8020000463
:102A600020431E24A41B1F2C1DDD02225242961B54
:102A70000200F2401600202C04D0154A944663440C
:102A8000984005432A00531E9A41324300265307BB
:102A9000CED180241300E404012023402242D3D16C
:102AA000B0E70023ADE70B4A94462A00E240140049
:102AB0002A0063449A409840551EAA41024322438B
:102AC000E4E733009EE7C046FE07000080FCFFFFFE
:102AD000A2FCFFFF82FCFFFF1C2101231B04984284
:102AE00001D3000C10391B0A984201D3000A08399F
:102AF0001B09984201D30009043902A2105C401856
:102B00007047C046040302020101010100000000F9
:102B10000000000010B5002903D1FFF7DDFF2030D1
:102B200002E00800FFF7D8FF10BDC04680B582B0B4
:102B300000AF7860C046BD4602B080BD80B582B0AF
:102B400000AF78607A68094B9A420AD1084B1B782B
:102B5000180000F081FC0649044B0122180001F026
:102B60000DF9C046BD4602B080BDC046380E0020FB
:102B7000340E002090B5A9B000AF02F05DFB8023B9
:102B8000DA008549854B180000F0D4FA8023DA007A
:102B90008349844B180000F0CDFA00F021F900F0D1
:102BA000A7F900F009FA04F057FB88217B187E4A48
:102BB00011CA11C37B18180000F0D2FC7B4B18001F
:102BC00000F0FBFB7A4B00221A707A4B00221A703D
:102BD00079497A4B0122180001F0D0F8744B1B7828
:102BE000002B04D000F05CFC714B00221A70714B7A
:102BF0001B78002BF2D06F4B1B78012B33D1842430
:102C00003A198823FB181100180000F06FFD03002B
:102C1000012B16D13B191B68181CFFF78DFE020013
:102C20000B006749380005F0FDFB020090217B187E
:102C30001A807B181A8839006048642300F0F6FF78
:102C4000A6E0604A3B001100180005F0EBFB020013
:102C500092217B181A807B181A8839005748642300
:102C600000F0E4FF94E0534B1B78022B30D1882115
:102C70007B185B790A33DAB27B181100180000F078
:102C8000E8FC0300012B11D14F4A3B001100180052
:102C900005F0C8FB020094217B181A807B181A8863
:102CA00039004648642300F0C1FF71E0474A3B0009
:102CB0001100180005F0B6FB020096217B181A805F
:102CC0007B181A8839003D48642300F0AFFF5FE0AD
:102CD000384B1B78032B30D188217B185B790A3B5A
:102CE000DAB27B181100180000F0B3FC0300012BCE
:102CF00011D1374A3B001100180005F093FB020088
:102D000098217B181A807B181A8839002B48642375
:102D100000F08CFF3CE02F4A3B001100180005F04A
:102D200081FB02009A217B181A807B181A883900CF
:102D30002248642300F07AFF2AE01E4B1B78042B04
:102D400011D1254A3B001100180005F06BFB020071
:102D50009C217B181A807B181A8839001748642335
:102D600000F064FF14E0134B1B78052B10D11B4AB5
:102D70003B001100180005F055FB02009E217B1856
:102D80001A807B181A8839000C48642300F04EFF23
:102D9000084B00221A7021E7200200200C020020BC
:102DA000340600202006002050C00008000000204B
:102DB000350E0020360E0020340E0020380E002084
:102DC00020BF000828BF000840BF00085CBF000803
:102DD00078BF000894BF0008B0BF000834C00008E6
:102DE00090B59DB000AF38243B19180038231A0065
:102DF000002104F033FB2423FB18180014231A00CD
:102E0000002104F02BFB3B00180024231A000021B2
:102E100004F024FB294B1B68294A1A40274B8021C8
:102E200009010A431A6021007B1802221A607B18EC
:102E30000122DA607B1810221A617B1802229A6242
:102E40007B180022DA627B1800221A637B1880222A
:102E500012045A637B18180002F060FF031E01D0B1
:102E600000F040F824217B180F221A607B180322FF
:102E70005A607B1800229A607B180022DA607B1867
:102E800000221A617B180021180003F00BFB031EBF
:102E900001D000F027F83B0002221A603B0000221C
:102EA0001A613B00180003F053FD031E01D000F02F
:102EB00019F8C046BD461DB090BDC0460070004028
:102EC000FFE7FFFF80B582B000AF78607B681A68CB
:102ED0008023DB059A4201D102F0CEF9C046BD46FF
:102EE00002B080BD80B500AF72B6C046FEE70000FC
:102EF00090B589B000AF0C243B19180014231A00B8
:102F0000002104F0ABFA2A4BDA6A294B04210A4368
:102F1000DA62274BDB6A04221340BB60BB68244B98
:102F2000DA6A234B01210A43DA62214BDB6A012270
:102F300013407B607B681E4BDA6A1D4B02210A43FB
:102F4000DA621B4BDB6A022213403B603B68A02322
:102F5000DB0500222021180003F0D4FF3B1980225A
:102F600092011A603B19842292035A603B19002295
:102F70009A603B190F4A1900100003F04DFE210022
:102F80007B1820221A607B1801225A607B180022CD
:102F90009A607B180022DA607A18A023DB05110002
:102FA000180003F039FEC046BD4609B090BDC046CA
:102FB000001002400008005080B500AF144B154AC5
:102FC0001A60134BE12252025A60114B00229A60A0
:102FD0000F4B0022DA600E4B00221A610C4B0C22C0
:102FE0005A610B4B00229A61094B0022DA61084BAF
:102FF00000221A62064B00225A62054B180000F0AC
:10300000C1FD031E01D0FFF76DFFC046BD4680BD68
:10301000380E00200044004090B589B000AF7860C1
:103020000C243B19180014231A00002104F016FA8E
:103030007B681B681C4A934231D11C4B9A6B1B4B1B
:10304000802189020A439A63184BDA6A174B0121DF
:103050000A43DA62154BDB6A01221340BB60BB688E
:1030600021007B180C221A607B1802225A607B1800
:1030700000229A607B180322DA607B1804221A610E
:103080007A18A023DB051100180003F0C5FD00220B
:1030900000211C2004F062F81C2004F074F8C046E3
:1030A000BD4609B090BDC04600440040001002403B
:1030B00080B500AFFEE780B500AFFEE780B500AF9A
:1030C000C046BD4680BD80B500AFC046BD4680BD90
:1030D00080B500AFC046BD4680BD000080B500AFE2
:1030E000034B180000F0F2FBC046BD4680BDC04651
:1030F000C00E002080B500AF034B180000F0A6FE04
:10310000C046BD4680BDC046380E002080B500AF29
:10311000074B5A6B064B01210A435A63044B9A6BC7
:10312000034B802149050A439A63C046BD4680BDD2
:103130000010024080B584B000AFF860B9607A60DA
:10314000FB68002B05D11B4B1B4A1C48082104F0CF
:1031500033F9BB68002B05D1194B174A17480921D1
:1031600004F02AF97B68002B05D1164B124A13484C
:103170000A2104F021F9FB68002B16D0BB68002B54
:1031800013D07B68002B10D0FB68BA681A60FB680C
:1031900000221A61FB680022DA60FB687A689A6094
:1031A000FB6800225A60012300E000231800BD469E
:1031B00004B080BD58C0000804C2000864C0000804
:1031C0007CC0000888C0000880B582B000AF78607D
:1031D0007B68002B05D1074B074A08482C2104F0D7
:1031E000EBF87B685B685A425341DBB21800BD467E
:1031F00002B080BD58C0000814C2000864C00008B6
:1032000080B582B000AF78600A00FB1C1A707B6842
:10321000002B05D1184B194A1948482104F0CCF865
:103220007B68002B22D07B689A687B685B689A4237
:103230001CD07B681A687B68DB68D318FA1C12788C
:103240001A707B685B685A1C7B685A607B68DB6815
:103250005A1C7B68DA607B68DA687B689B689A42F4
:1032600002D17B680022DA60012300E0002318000D
:10327000BD4602B080BDC04658C0000828C2000844
:1032800064C0000880B582B000AF786039607B68A8
:10329000002B05D11F4B204A2048612104F08CF8F7
:1032A0003B68002B05D11E4B1B4A1C48622104F0D1
:1032B00083F87B68002B27D03B68002B24D07B68E9
:1032C0001800FFF781FF031E01D000231DE07B687B
:1032D0001A687B681B69D3181A783B681A707B6878
:1032E0001B695A1C7B681A617B681A697B689B683A
:1032F0009A4202D17B6800221A617B685B685A1E81
:103300007B685A60012300E000231800BD4602B02C
:1033100080BDC04658C000083CC2000864C0000818
:103320009CC0000890B585B000AF0200FB1D1A706C
:10333000FB1D1A780F4B11001800FFF761FF031EE9
:1033400012D00F243A190B4B11001800FFF79AFF07
:10335000031E07D0391908486423012200F066FCD7
:10336000012302E0002300E000231800BD4605B061
:1033700090BDC0460C020020380E002080B584B0FD
:1033800000AF786039600023FB607B68BB600CE0B5
:10339000FB680133FB60BB685A1CBA601B781800DD
:1033A000FFF7C0FF3B68013B3B603B68002BEFD160
:1033B000FB681800BD4604B080BD80B582B000AF88
:1033C00078607B681800FCF7A9FE03009A1C7B68F4
:1033D00011001800FFF7D2FF03001800BD4602B02D
:1033E00080BD0000B0B584B000AF78600F257C19B7
:1033F0007A68064B11001800FFF744FF03002370A2
:103400007B191B781800BD4604B0B0BD2006002013
:1034100080B584B000AF786039600023FB6011E0B4
:103420007A68FB68D3181800FFF7DCFF03001A0066
:1034300001235340DBB2002B01D0FB6807E0FB689F
:103440000133FB603A68FB689A42E9D8FB681800D0
:10345000BD4604B080BD000080B582B000AF020060
:10346000FB1D1A70FB1D1B780D2B03D0FB1D1B7859
:103470000A2B03D1074B01221A7007E0064B1A787A
:10348000064B11001800FFF7BBFEC046C046BD4604
:1034900002B080BD350E0020340E00202006002032
:1034A00080B582B000AF274B1800FFF78DFE0300F8
:1034B0001A0001235340DBB2002B3ED0224B0A21DD
:1034C0001800FFF7A5FF03007B601F4A7B68D31835
:1034D00000221A701D4A1C4B11001800FCF714FE44
:1034E000031E03D11A4B01221A7026E0194A164B0B
:1034F00011001800FCF708FE031E03D1144B022232
:103500001A701AE0144A104B11001800FCF7FCFD69
:10351000031E03D10E4B03221A700EE00F4A0A4B12
:1035200011001800FCF7F0FD031E03D1084B042224
:103530001A7002E0064B05221A70C046BD4602B062
:1035400080BDC04620060020340A0020A0C000082C
:10355000360E0020ACC00008B4C00008BCC0000893
:1035600080B582B000AF78607B68180000F022F868
:103570000300012B01D0002318E07B685A797B6897
:103580001100180000F065F80300012B01D00023A2
:103590000CE07B681A797B681100180000F025F8B0
:1035A0000300012B01D0002300E001231800BD46D9
:1035B00002B080BD90B587B002AF78600F243B1990
:1035C00007221A707B6818687B68D9883A190A2321
:1035D0000093012301F002FF031E01D0002300E04D
:1035E00001231800BD4605B090BD80B584B002AF80
:1035F00078600A00FB1C1A70FB1C1B781B09DBB2ED
:10360000002B07D1FB1C1B785B09DBB2002B01D11F
:1036100000231AE0FB1C1B781A000C23134001D076
:10362000002312E0FB1C1A787B681A717B6818680B
:103630007B68D988FA1C0A230093012301F0CEFE8F
:10364000031E01D0002300E001231800BD4602B094
:1036500080BD90B587B002AF78600A00FB1C1A707D
:10366000FB1C1B781E2B03D9FB1C1B78FF2B01D1E5
:10367000002337E07B68FA1C12785A71FB1C1B7818
:103680005B09DBB240221343DAB20F243B191A70F4
:103690007B6818687B68D9883A190A23009301234C
:1036A00001F09CFE031E01D000231BE0FB1C1B78D5
:1036B0005BB21F2213405BB2602213435BB2DAB2EB
:1036C0000E243B191A707B6818687B68D9883A19F0
:1036D0000A230093012301F081FE031E01D0002381
:1036E00000E001231800BD4605B090BD90B587B03D
:1036F00002AF786039607B6818687B68D9880C23D2
:10370000FA180A230093022301F070FF031E01D070
:1037100000233FE00C22BB181B781B02BA1852781A
:1037200013431800FDF792FA021C3B681A603B68CD
:103730001C687B685B791800FDF7D6FA031C191C1E
:103740001648FDF745F8031C191C201CFDF758F915
:10375000031C1A1C3B681A607B681B79212B03D061
:103760007B681B79112B0AD13B681B688021C90536
:10377000181CFDF72DF8031C1A1C3B681A603B68E7
:103780001B680749181CFDF723F8031C1A1C3B682B
:103790001A6001231800BD4605B090BD00008A42A2
:1037A0009A99993F80B582B000AF78607B68002B12
:1037B00001D1012332E07B6839229B5CDBB2002B14
:1037C00007D17B683822002199547B68180000F0EB
:1037D00029F87B683922022199547B681A687B6832
:1037E00004331900100000F079F97B683E220121B2
:1037F00099547B683A22012199547B683B2201212C
:1038000099547B683C22012199547B683D22012117
:1038100099547B6839220121995400231800BD4630
:1038200002B080BD80B582B000AF7860C046BD46B2
:1038300002B080BD80B584B000AF78607B6839226B
:103840009B5CDBB2012B01D0012336E07B6839227F
:10385000022199547B681B68DA687B681B68012128
:103860000A43DA607B681A688023DB059A4209D034
:103870007B681B68134A934204D07B681B68124A1A
:10388000934211D17B681B689B6807221340FB6041
:10389000FB68062B10D07B681B681A687B681B6866
:1038A00001210A431A6007E07B681B681A687B687D
:1038B0001B6801210A431A6000231800BD4604B0AA
:1038C00080BDC046000801400014014080B582B0B0
:1038D00000AF78607B681B681B6902221340022BD3
:1038E00024D17B681B68DB6802221340022B1DD1A8
:1038F0007B681B68032252421A617B6801221A7698
:103900007B681B689B690322134004D07B68180006
:1039100000F0CCF807E07B68180000F0BFF87B6887
:10392000180000F0CBF87B6800221A767B681B68D1
:103930001B6904221340042B25D17B681B68DB68BC
:1039400004221340042B1ED17B681B6805225242BF
:103950001A617B6802221A767B681B689A69C02309
:103960009B00134004D07B68180000F09FF807E02C
:103970007B68180000F092F87B68180000F09EF851
:103980007B6800221A767B681B681B69082213403B
:10399000082B24D17B681B68DB6808221340082BA6
:1039A0001DD17B681B68092252421A617B68042280
:1039B0001A767B681B68DB690322134004D07B689E
:1039C000180000F073F807E07B68180000F066F854
:1039D0007B68180000F072F87B6800221A767B681A
:1039E0001B681B6910221340102B25D17B681B68B4
:1039F000DB6810221340102B1ED17B681B6811223C
:103A000052421A617B6808221A767B681B68DA6961
:103A1000C0239B00134004D07B68180000F046F8D8
:103A200007E07B68180000F039F87B68180000F0A8
:103A300045F87B6800221A767B681B681B690122A7
:103A40001340012B0FD17B681B68DB6801221340F8
:103A5000012B08D17B681B68022252421A617B68E5
:103A60001800FFF72FFA7B681B681B694022134080
:103A7000402B0FD17B681B68DB6840221340402B32
:103A800008D17B681B68412252421A617B6818008A
:103A900000F01CF8C046BD4602B080BD80B582B0C3
:103AA00000AF7860C046BD4602B080BD80B582B030
:103AB00000AF7860C046BD4602B080BD80B582B020
:103AC00000AF7860C046BD4602B080BD80B582B010
:103AD00000AF7860C046BD4602B080BD80B584B0FE
:103AE00000AF786039607B681B68FB607A68802370
:103AF000DB059A4207D07B681F4A934203D07B685C
:103B00001E4A934208D1FB6870229343FB603B68D6
:103B10005B68FA681343FB607A688023DB059A428E
:103B200007D07B68144A934203D07B68134A9342C0
:103B300008D1FB68124A1340FB603B68DB68FA68F7
:103B40001343FB60FB68802293431A003B681B69A8
:103B50001343FB607B68FA681A603B689A687B686D
:103B6000DA623B681A687B689A627B6801225A6154
:103B7000C046BD4604B080BD0008014000140140AD
:103B8000FFFCFFFF80B582B000AF78607B68002B40
:103B900001D1012344E07B689B6F002B07D17B6838
:103BA0007422002199547B681800FFF735FA7B686E
:103BB00024229A677B681B681A687B681B6801214E
:103BC0008A431A607B68180000F02EFC0300012B6A
:103BD00001D1012324E07B685B6A002B03D07B6862
:103BE000180000F0A5FE7B681B685A687B681B689C
:103BF0000D490A405A607B681B689A687B681B689D
:103C00002A218A439A607B681B681A687B681B6854
:103C100001210A431A607B68180000F03DFF030091
:103C20001800BD4602B080BDFFB7FFFF80B58AB067
:103C300002AFF860B9603B60BB1D1A80FB689B6FE8
:103C4000202B00D095E0BB68002B03D0BB1D1B8848
:103C5000002B01D101238DE0FB689A6880235B0172
:103C60009A4209D1FB681B69002B05D1BB68012270
:103C7000134001D001237DE0FB6874229B5C012B83
:103C800001D1022376E0FB68742201219954FB687C
:103C9000802200219950FB6821229A6701F0FEFAE8
:103CA00003007B61FB68BA1D502112885A52FB68E1
:103CB000BA1D522112885A52FB689A6880235B0110
:103CC0009A4208D1FB681B69002B04D10023FB61D9
:103CD000BB68BB6103E0BB68FB610023BB61FB68A1
:103CE0007422002199542CE07A69F8683B680093AB
:103CF00013000022802100F017FF031E01D00323D0
:103D000038E0FB69002B0BD1BB691B881A00FB68EC
:103D10001B68D205D20D9A62BB690233BB6107E012
:103D2000FB691A78FB681B689A62FB690133FB61C7
:103D3000FB6852229B5A9BB2013B99B2FB6852220C
:103D40009952FB6852229B5A9BB2002BCCD17A69C4
:103D5000F8683B68009313000022402100F0E4FE65
:103D6000031E01D0032305E0FB6820229A6700238D
:103D700000E002231800BD4608B080BD80B588B0C1
:103D800000AFF860B960BB1D1A80FB68DB6F202BA9
:103D900055D1BB68002B03D0BB1D1B88002B01D164
:103DA00001234DE0FB689A6880235B019A4209D1A8
:103DB000FB681B69002B05D1BB680122134001D0B1
:103DC00001233DE0FB6874229B5C012B01D102239F
:103DD00036E0FB68742201219954FB6800221A66C0
:103DE000FB681B68184A934220D0FB681B685A681E
:103DF00080231B04134019D0EFF310833B613B6910
:103E0000FB6101237B617B6983F31088C046FB68FB
:103E10001B681A68FB681B688021C9040A431A6082
:103E2000FB69BB61BB6983F31088C046BB1D1A8860
:103E3000B968FB68180000F03BFF030000E00223B4
:103E40001800BD4608B080BD0048004090B5ABB03A
:103E500000AF78607B681B68DB69A422B9180B602F
:103E60007B681B681B68A02039180B607B681B6887
:103E70009B689C2179180B601100BB181B68994A3C
:103E800013409822BC182360BB181B68002B14D168
:103E90007B181B68202213400FD03B181B68202280
:103EA00013400AD07B685B6E002B00D198E27B68E0
:103EB0005B6E7A681000984792E29823FB181B68A3
:103EC000002B00D114E19C23FB181B680122134036
:103ED00006D1A023FB181B68834A134000D107E1D9
:103EE000A423FB181B680122134012D0A023FB1847
:103EF0001A6880235B0013400BD07B681B6801228B
:103F00001A627B6880229B5801221A437B688021B9
:103F10005A50A423FB181B680222134011D09C2383
:103F2000FB181B68012213400BD07B681B68022220
:103F30001A627B6880229B5804221A437B68802186
:103F40005A50A423FB181B680422134011D09C2351
:103F5000FB181B68012213400BD07B681B680422EE
:103F60001A627B6880229B5802221A437B68802158
:103F70005A50A423FB181B680822134017D0A02313
:103F8000FB181B682022134005D19C23FB181B68DB
:103F9000012213400BD07B681B6808221A627B68E1
:103FA00080229B5808221A437B6880215A50A42300
:103FB000FB181A6880231B01134013D0A023FB18A1
:103FC0001A688023DB0413400CD07B681B688022B6
:103FD00012011A627B6880229B5820221A437B6858
:103FE00080215A507B6880229B58002B00D1F9E138
:103FF000A423FB181B68202213400ED0A023FB181B
:104000001B682022134008D07B685B6E002B04D015
:104010007B685B6E7A68100098477B6880229B58AB
:1040200094217A1813607B681B689B6840221340B8
:10403000402B04D07B181B682822134047D07B6894
:10404000180000F0E5FE7B681B689B684022134067
:10405000402B37D1EFF310833B663B6E90203A182C
:10406000136001237B667B6E83F31088C0467B68F8
:104070001B689A687B681B6840218A439A603B18DA
:104080001B68BB66BB6E83F31088C0467B681B6FE2
:10409000002B12D07B681B6F144A9A637B681B6FDE
:1040A000180002F08CFF031E1AD07B681B6F9A6BFE
:1040B0007B681B6F1800904712E07B68180000F0C7
:1040C0009FF90DE07B68180000F09AF908E07B6822
:1040D000180000F095F97B6880220021995081E159
:1040E000C0467FE10F08000020010004D54E000803
:1040F0007B681B6E012B00D033E1A423FB181B68E7
:104100001022134000D12CE1A023FB181B681022C1
:10411000134000D125E17B681B6810221A627B687E
:104120001B689B6840221340402B00D09DE07B68B9
:104130001B6F1B685A687E217B181A807B181B88AE
:10414000002B00D150E17B6858229B5A7A181288C4
:104150009A4200D348E17B687A185A2112885A5251
:104160007B681B6F1B681B68202213406ED1EFF326
:1041700010833B633B6BBB6701237B637B6B83F3E8
:104180001088C0467B681B681A687B681B689A4960
:104190000A401A60BB6FBB63BB6B83F31088C046D9
:1041A000EFF31083FB63FB6B7B6701233B643B6C8A
:1041B00083F31088C0467B681B689A687B681B681D
:1041C00001218A439A607B6F7B647B6C83F3108848
:1041D000C046EFF31083BB64BB6C3B670123FB64F9
:1041E000FB6C83F31088C0467B681B689A687B6809
:1041F0001B6840218A439A603B6F3B653B6D83F3AC
:104200001088C0467B682022DA677B6800221A6625
:10421000EFF310837B657B6DFB660123BB65BB6D94
:1042200083F31088C0467B681B681A687B681B682C
:1042300010218A431A60FB6EFB65FB6D83F31088C7
:10424000C0467B681B6F180002F079FE7B6858221D
:104250009A5A7B685A215B5A9BB2D31A9AB27B68EE
:104260001100180000F0D4F8BEE07B685822995A7B
:104270007B685A229B5A9AB28E203B188A1A1A805F
:104280007B685A229B5A9BB2002B00D1AEE03B18B0
:104290001B88002B00D1A9E0EFF31083FB60FB68C3
:1042A00088243A19136001233B613B6983F310882A
:1042B000C0467B681B681A687B681B684F490A40C8
:1042C0001A603B191B687B617B6983F31088C046C9
:1042D000EFF31083BB61BB6984243A191360012397
:1042E000FB61FB6983F31088C0467B681B689A6892
:1042F0007B681B6801218A439A603B191B683B62FB
:104300003B6A83F31088C0467B682022DA677B68AB
:1043100000221A667B6800225A66EFF310837B62E4
:104320007B6A80243A1913600123BB62BB6A83F362
:104330001088C0467B681B681A687B681B68102160
:104340008A431A603B191B68FB62FB6A83F310887F
:10435000C0463B181A887B681100180000F058F816
:1043600044E0A423FB181A6880235B03134010D099
:104370009C23FB181A688023DB03134009D07B6859
:104380001B68802252031A627B68180000F04CFF01
:104390002FE0A423FB181B68802213400FD0A0231A
:1043A000FB181B688022134009D07B689B6E002B92
:1043B0001ED07B689B6E7A681000984718E0A42393
:1043C000FB181B684022134013D0A023FB181B6866
:1043D000402213400DD07B68180000F092FD08E0E9
:1043E000C04606E0C04604E0C04602E0C04600E029
:1043F000C046BD462BB090BDFFFEFFFFDFFEFFFFB6
:1044000080B582B000AF7860C046BD4602B080BDC6
:1044100080B582B000AF78600A00BB1C1A80C0462D
:10442000BD4602B080BD0000B0B58EB000AFF861EF
:104430001A2318229B18DB1900221A70FB699A684C
:10444000FB691B691A43FB695B691A43FB69DB69FA
:1044500013437B63FB691B681B68C64A1340190042
:10446000FB691B687A6B0A431A60FB691B685B680F
:10447000C14A13401900FB69DA68FB691B680A43EB
:104480005A60FB699B697B63FB691B68BB4A93426B
:1044900004D0FB691B6A7A6B13437B63FB691B685F
:1044A0009B68B74A13401900FB691B687A6B0A4383
:1044B0009A60FB691B68B34A934231D1B24BDB6C03
:1044C00003221340032B1DD023D8022B0CD020D85D
:1044D000002B02D0012B0ED01BE01B2318229B18AF
:1044E000DB1901221A709CE01B2318229B18DB1990
:1044F00002221A7095E01B2318229B18DB19042254
:104500001A708EE01B2318229B18DB1908221A70E0
:1045100087E01B2318229B18DB1910221A7080E0F9
:10452000FB691B68994A934231D1974BDB6C0C2293
:1045300013400C2B1DD023D8082B0CD020D8002BD7
:1045400002D0042B0ED01BE01B2318229B18DB1972
:1045500000221A7065E01B2318229B18DB19022227
:104560001A705EE01B2318229B18DB1904221A70B4
:1045700057E01B2318229B18DB1908221A7050E001
:104580001B2318229B18DB1910221A7049E0FB69C3
:104590001B687A4A93423ED17B4BDA6CC0231B01E5
:1045A0001340C0221201934227D0C022120193422D
:1045B0002AD880221201934211D080221201934204
:1045C00022D8002B04D08022D20093420ED01BE0D0
:1045D0001B2318229B18DB1900221A7021E01B23D1
:1045E00018229B18DB1902221A701AE01B231822CA
:1045F0009B18DB1904221A7013E01B2318229B1846
:10460000DB1908221A700CE01B2318229B18DB19F7
:1046100010221A7005E01B2318229B18DB191022A8
:104620001A70FB691B68554A934200D084E01B2333
:1046300018229B18DB191B78082B1DD020DC042BBB
:1046400015D01DDC002B02D0022B05D018E002F0A3
:1046500021F90300FB621CE04B4B1B681022134046
:1046600002D04B4BFB6214E04A4BFB6211E002F0BC
:1046700061F80300FB620CE080231B02FB6208E090
:104680000023FB621A2318229B18DB1901221A70DF
:10469000C046FB6A002B00D133E1FB695A68130066
:1046A0005B009B18FA6A9A4205D3FB695B681B039F
:1046B000FA6A9A4206D91A2318229B18DB1901229A
:1046C0001A701EE1FB6A3B6100237B6139697A69DC
:1046D0000B001B0E100005021D430B001C02FB69A2
:1046E0005B685B08BB600023FB60B868F968001971
:1046F0006941FB695B683B6000237B603A687B68CB
:10470000FBF7DCFE02000B001300BB62BA6AC02399
:104710009B009A4209D3BA6A80235B039A4204D26F
:10472000FB691B68BA6ADA60EBE01A2318229B184F
:10473000DB1901221A70E4E0FB69DA6980231B02AD
:104740009A4200D086E01B2318229B18DB191B78A5
:10475000082B37D89A00104BD3181B689F4602F0DD
:1047600099F80300FB6236E002F0AAF80300FB624E
:1047700031E0C046F369FFEFFFCFFFFF0048004084
:10478000FFF4FFFF003801400010024000440040E9
:1047900000093D000024F40050C20008604B1B6873
:1047A0001022134002D05F4BFB6214E05E4BFB62B1
:1047B00011E001F0BFFF0300FB620CE080231B024D
:1047C000FB6208E00023FB621A2318229B18DB1906
:1047D00001221A70C046FB6A002B00D191E0FB6AEF
:1047E0005A00FB695B685B08D218FB695B681900BB
:1047F0001000FBF7AFFC03009BB2BB62BB6A0F2B40
:1048000021D9BA6A80235B029A421CD2BB6A9AB24F
:104810000E2018240319DB190F218A431A80BB6A62
:104820005B089BB20722134099B20319DB190219E6
:10483000D21912880A431A80FB691B680219D2191F
:104840001288DA605DE01A2318229B18DB19012216
:104850001A7056E01B2318229B18DB191B78082BB3
:1048600022D89A00314BD3181B689F4602F012F8E9
:104870000300FB6221E002F023F80300FB621CE06E
:10488000274B1B681022134002D0264BFB6214E01A
:10489000254BFB6211E001F04DFF0300FB620CE0D1
:1048A00080231B02FB6208E00023FB621A2318220C
:1048B0009B18DB1901221A70C046FB6A002B20D01E
:1048C000FB695B685A08FB6AD218FB695B681900D0
:1048D0001000FBF73FFC03009BB2BB62BB6A0F2BCF
:1048E00009D9BA6A80235B029A4204D2FB691B6829
:1048F000BA6ADA6005E01A2318229B18DB19012234
:104900001A70FB6900225A66FB6900229A661A2314
:1049100018229B18DB191B781800BD460EB0B0BDDD
:104920000010024000093D000024F40074C2000899
:1049300080B582B000AF78607B685B6A012213406B
:104940000BD07B681B685B684A4A134019007B6880
:104950009A6A7B681B680A435A607B685B6A02221A
:1049600013400BD07B681B685B68434A13401900F7
:104970007B68DA6A7B681B680A435A607B685B6AFB
:10498000042213400BD07B681B685B683B4A1340D2
:1049900019007B681A6B7B681B680A435A607B6846
:1049A0005B6A082213400BD07B681B685B68344A43
:1049B000134019007B685A6B7B681B680A435A6076
:1049C0007B685B6A102213400BD07B681B689B6876
:1049D0002C4A134019007B689A6B7B681B680A435A
:1049E0009A607B685B6A202213400BD07B681B684F
:1049F0009B68254A134019007B68DA6B7B681B684B
:104A00000A439A607B685B6A402213401DD07B6832
:104A10001B685B681D4A134019007B681A6C7B6831
:104A20001B680A435A607B681A6C80235B039A42B6
:104A30000BD17B681B685B68154A134019007B68C3
:104A40005A6C7B681B680A435A607B685B6A8022E9
:104A500013400BD07B681B685B680E4A134019003B
:104A60007B689A6C7B681B680A435A60C046BD46E7
:104A700002B080BDFFFFFDFFFFFFFEFFFFFFFBFF5A
:104A8000FF7FFFFFFFEFFFFFFFDFFFFFFFFFEFFFF6
:104A9000FFFF9FFFFFFFF7FF80B586B002AF786092
:104AA0007B6880220021995000F0F8FB0300FB6036
:104AB0007B681B681B6808221340082B0CD1FB681D
:104AC000802291037868174A0092002200F02CF8A7
:104AD000031E01D0032321E07B681B681B680422AE
:104AE0001340042B0CD1FB688022D10378680D4A57
:104AF0000092002200F018F8031E01D003230DE0FD
:104B00007B6820229A677B682022DA677B68002214
:104B10001A667B6874220021995400231800BD4650
:104B200004B080BDFFFFFF0180B594B000AFF86016
:104B3000B9603B60FB1D1A70A3E0BB6D013300D16F
:104B40009FE000F0ABFB02003B68D31ABA6D9A42BB
:104B500002D3BB6D002B3DD1EFF31083BB62BB6A68
:104B60007B640123FB62FB6A83F31088C046FB6809
:104B70001B681A68FB681B684C490A401A607B6C0A
:104B80003B633B6B83F31088C046EFF310837B637A
:104B90007B6B3B640123BB63BB6B83F31088C04614
:104BA000FB681B689A68FB681B6801218A439A604E
:104BB0003B6CFB63FB6B83F31088C046FB682022D1
:104BC0009A67FB682022DA67FB68742200219954F7
:104BD000032367E0FB681B681B680422134050D066
:104BE000FB681B68DA6980231B011A4080231B01C4
:104BF0009A4246D1FB681B68802212011A62EFF3C9
:104C000010833B613B69FB6401237B617B6983F318
:104C10001088C046FB681B681A68FB681B6823493C
:104C20000A401A60FB6CBB61BB6983F31088C04605
:104C3000EFF31083FB61FB69BB6401233B623B6ABA
:104C400083F31088C046FB681B689A68FB681B6882
:104C500001218A439A60BB6C7B627B6A83F3108874
:104C6000C046FB6820229A67FB682022DA67FB684F
:104C7000802220219950FB6874220021995403233B
:104C800010E0FB681B68DB69BA681340BA68D31A86
:104C90005A425341DBB21A00FB1D1B789A4200D1E5
:104CA0004BE700231800BD4614B080BD5FFEFFFF38
:104CB00080B58CB000AFF860B960BB1D1A80FB688E
:104CC000BA685A65FB68BA1D582112885A52FB68A7
:104CD000BA1D5A2112885A52FB6800225A66FB6894
:104CE0009A6880235B019A420DD1FB681B69002BF7
:104CF00004D1FB685C22434999522EE0FB685C2298
:104D0000FF21995229E0FB689B68002B0DD1FB68BD
:104D10001B69002B04D1FB685C22FF2199521CE027
:104D2000FB685C227F21995217E0FB689A68802318
:104D30005B059A420DD1FB681B69002B04D1FB680F
:104D40005C227F21995208E0FB685C223F21995246
:104D500003E0FB685C2200219952FB68802200215D
:104D60009950FB682222DA67EFF31083FB61FB693D
:104D7000FB6201233B623B6A83F31088C046FB68F9
:104D80001B689A68FB681B6801210A439A60FB6AEA
:104D90007B627B6A83F31088C046FB689A68802335
:104DA0005B019A4207D1FB681B69002B03D1FB68AA
:104DB000154A5A6602E0FB68144A5A66FB68742278
:104DC00000219954EFF310833B613B69BB620123DF
:104DD0007B617B6983F31088C046FB681B681A6897
:104DE000FB681B68902149000A431A60BB6ABB61DB
:104DF000BB6983F31088C04600231800BD460CB081
:104E000080BDC046FF010000C1500008594F000896
:104E100080B58EB000AF7860EFF310837B617B6963
:104E20007B630123BB61BB6983F31088C0467B6849
:104E30001B681A687B681B6825490A401A607B6BEF
:104E4000FB61FB6983F31088C046EFF310833B627C
:104E50003B6A3B6301237B627B6A83F31088C04615
:104E60007B681B689A687B681B6801218A439A608B
:104E70003B6BBB62BB6A83F31088C0467B681B6ECA
:104E8000012B18D1EFF31083BB60BB68FB620123D9
:104E9000FB60FB6883F31088C0467B681B681A6858
:104EA0007B681B6810218A431A60FB6A3B613B697F
:104EB00083F31088C0467B682022DA677B68002273
:104EC0001A667B6800225A66C046BD460EB080BD99
:104ED000DFFEFFFF80B584B000AF78607B689B6A1F
:104EE000FB60FB685A2200219952FB685222002184
:104EF0009952FB681800FFF783FAC046BD4604B01C
:104F000080BD80B586B000AF7860EFF31083BB60E2
:104F1000BB687B610123FB60FB6883F31088C0469C
:104F20007B681B681A687B681B6840218A431A608B
:104F30007B693B613B6983F31088C0467B68202214
:104F40009A677B6800229A667B681800FDF7EEFD81
:104F5000C046BD4606B080BD80B590B000AF786059
:104F60003E203B187A685C21525A1A807B68DB6FBE
:104F7000222B00D095E07B681B685A6A3C217B1885
:104F80001A807B181B88DAB23B181B88D9B27B6861
:104F90005B6D0A40D2B21A707B685B6D5A1C7B68ED
:104FA0005A657B685A229B5A9BB2013B99B27B6837
:104FB0005A2299527B685A229B5A9BB2002B78D175
:104FC000EFF31083BB61BB69BB630123FB61FB692A
:104FD00083F31088C0467B681B681A687B681B686F
:104FE00036490A401A60BB6B3B623B6A83F3108808
:104FF000C046EFF310837B627B6A7B630123BB6255
:10500000BB6A83F31088C0467B681B689A687B681C
:105010001B6801218A439A607B6BFB62FB6A83F306
:105020001088C0467B682022DA677B6800225A66B7
:105030007B681B6E012B2FD17B6800221A66EFF371
:105040001083FB60FB683B6301233B613B6983F397
:105050001088C0467B681B681A687B681B68102133
:105060008A431A603B6B7B617B6983F31088C0467F
:105070007B681B68DB6910221340102B03D17B680F
:105080001B6810221A627B6858229A5A7B681100AA
:105090001800FFF7BDF90CE07B681800FDF74EFD26
:1050A00007E07B681B689A697B681B6808210A43D4
:1050B0009A61C046BD4610B080BDC046DFFEFFFF0E
:1050C00080B590B000AF78603E203B187A685C21D4
:1050D000525A1A807B68DB6F222B00D095E07B68E8
:1050E0001B685A6A3C217B181A807B685B6DBB6326
:1050F0007B183A181B88128813409AB2BB6B1A802F
:105100007B685B6D9A1C7B685A657B685A229B5A48
:105110009BB2013B99B27B685A2299527B685A2212
:105120009B5A9BB2002B78D1EFF310837B617B6994
:105130007B630123BB61BB6983F31088C0467B6836
:105140001B681A687B681B6836490A401A607B6BCB
:10515000FB61FB6983F31088C046EFF310833B6269
:105160003B6A3B6301237B627B6A83F31088C04602
:105170007B681B689A687B681B6801218A439A6078
:105180003B6BBB62BB6A83F31088C0467B682022FE
:10519000DA677B6800225A667B681B6E012B2FD171
:1051A0007B6800221A66EFF31083BB60BB68FB626A
:1051B0000123FB60FB6883F31088C0467B681B6893
:1051C0001A687B681B6810218A431A60FB6A3B617E
:1051D0003B6983F31088C0467B681B68DB6910223B
:1051E0001340102B03D17B681B6810221A627B6866
:1051F00058229A5A7B6811001800FFF709F90CE051
:105200007B681800FDF79AFC07E07B681B689A69C9
:105210007B681B6808210A439A61C046BD4610B0EE
:1052200080BDC046DFFEFFFF80B582B000AF786072
:10523000C046BD4602B080BD80B582B000AFFB1D48
:1052400000221A700B4B1A680A4B40210A431A605D
:10525000032001F0ADFF031E03D0FB1D01221A70D5
:1052600001E0FDF753FFFB1D1B781800BD4602B09F
:1052700080BDC0460020024080B500AF054B1B78C2
:105280001A00054B1B68D218034B1A60C046BD4676
:1052900080BDC04614000020BC0E002080B500AFC9
:1052A000024B1B681800BD4680BDC046BC0E0020E6
:1052B00080B582B000AF78607B68002B01D10123FC
:1052C00082E07B6841229B5CDBB2002B07D17B68CC
:1052D0004022002199547B68180001F0FDFF7B6893
:1052E0004122242199547B681B681A687B681B68DB
:1052F00001218A431A607B685A687B681B683449BD
:105300000A401A617B681B689A687B681B68314990
:105310000A409A607B68DB68012B08D17B689A6839
:105320007B681B68802109020A439A6007E07B685A
:105330009A687B681B68842109020A439A607B682B
:10534000DB68022B04D17B681B68802212015A6043
:105350007B681B685A687B681B681F490A435A6050
:105360007B681B68DA687B681B681A490A40DA6048
:105370007B681A697B685B691A4311007B689B69CB
:105380001A027B681B680A43DA607B68D9697B680C
:105390001A6A7B681B680A431A607B681B681A6874
:1053A0007B681B6801210A431A607B6800225A64EB
:1053B0007B684122202199547B6800221A637B6814
:1053C00042220021995400231800BD4602B080BD3E
:1053D000FFFFFFF0FF7FFFFF0080000290B589B064
:1053E00002AFF86008007A6019000A23FB18021C5B
:1053F0001A800823FB180A1C1A80FB6841229B5C58
:10540000DBB2202B00D0E7E0FB6840229B5C012B45
:1054100001D10223E1E0FB68402201219954FFF70A
:105420003DFF03007B6180231902F8687B690093CC
:105430001923012200F004FA031E01D00123CCE05D
:10544000FB68412221219954FB6842221021995482
:10545000FB6800225A64FB687A685A62FB6808227B
:10546000BA1812885A85FB6800225A63FB685B8D64
:105470009BB2FF2B11D9FB68FF221A85FB681B8D9D
:10548000DAB280235C040A23FB181988F868554BAC
:105490000093230000F074FB75E0FB685B8D9AB20B
:1054A000FB681A85FB681B8DDAB280239C040A23F3
:1054B000FB181988F8684B4B0093230000F060FB41
:1054C00061E07A69B96AFB68180000F0F8F9031E18
:1054D00001D0012381E0FB685B6A1A78FB681B68D6
:1054E0009A62FB685B6A5A1CFB685A62FB685B8DB8
:1054F0009BB2013B9AB2FB685A85FB681B8D013B4E
:105500009AB2FB681A85FB685B8D9BB2002B3AD080
:10551000FB681B8D002B36D1BA6AF8687B69009353
:1055200013000022802100F08BF9031E01D001231B
:1055300053E0FB685B8D9BB2FF2B11D9FB68FF2208
:105540001A85FB681B8DDAB280235C040A23FB18E2
:105550001988F86800230093230000F011FB12E083
:10556000FB685B8D9AB2FB681A85FB681B8DDAB20B
:1055700080239C040A23FB181988F86800230093F1
:10558000230000F0FDFAFB685B8D9BB2002B98D1E5
:105590007A69B96AFB68180000F0D0F9031E01D0DF
:1055A00001231AE0FB681B682022DA61FB681B6894
:1055B0005A68FB681B680C490A405A60FB68412224
:1055C00020219954FB68422200219954FB68402213
:1055D00000219954002300E002231800BD4607B0C3
:1055E00090BDC0460020008000E800FE90B589B064
:1055F00002AFF86008007A6019000A23FB18021C49
:105600001A800823FB180A1C1A80FB6841229B5C45
:10561000DBB2202B00D0E8E0FB6840229B5C012B32
:1056200001D10223E2E0FB68402201219954FFF7F7
:1056300035FE03007B6180231902F8687B690093C3
:105640001923012200F0FCF8031E01D00123CDE054
:10565000FB68412222219954FB684222102199546F
:10566000FB6800225A64FB687A685A62FB68082269
:10567000BA1812885A85FB6800225A63FB685B8D52
:105680009BB2FF2B11D9FB68FF221A85FB681B8D8B
:10569000DAB280235C040A23FB181988F868554B9A
:1056A0000093230000F06CFA76E0FB685B8D9AB201
:1056B000FB681A85FB681B8DDAB280239C040A23E1
:1056C000FB181988F8684B4B0093230000F058FA38
:1056D00062E07A69B96AFB68180000F06BF9031E92
:1056E00001D0012382E0FB681B685A6AFB685B6A91
:1056F000D2B21A70FB685B6A5A1CFB685A62FB687C
:105700001B8D013B9AB2FB681A85FB685B8D9BB2CF
:10571000013B9AB2FB685A85FB685B8D9BB2002BFC
:105720003AD0FB681B8D002B36D1BA6AF8687B69CA
:10573000009313000022802100F082F8031E01D0A4
:10574000012353E0FB685B8D9BB2FF2B11D9FB68F3
:10575000FF221A85FB681B8DDAB280235C040A23C2
:10576000FB181988F86800230093230000F008FA5A
:1057700012E0FB685B8D9AB2FB681A85FB681B8D93
:10578000DAB280239C040A23FB181988F8680023E6
:105790000093230000F0F4F9FB685B8D9BB2002BB3
:1057A00097D17A69B96AFB68180000F0C7F8031E40
:1057B00001D001231AE0FB681B682022DA61FB6834
:1057C0001B685A68FB681B680B490A405A60FB68F3
:1057D000412220219954FB68422200219954FB6800
:1057E000402200219954002300E002231800BD4606
:1057F00007B090BD0024008000E800FE80B582B0B4
:1058000000AF78607B681B689B6902221340022B03
:1058100003D17B681B6800229A627B681B689B69C6
:1058200001221340012B07D07B681B689A697B68B3
:105830001B6801210A439A61C046BD4602B080BD83
:1058400080B584B000AFF860B9603B60FB1D1A7092
:1058500021E03B6801331ED0FFF720FD0200BB6949
:10586000D31A3A689A4202D33B68002B13D1FB68E3
:105870005B6C20221A43FB685A64FB68412220219A
:105880009954FB68422200219954FB684022002170
:10589000995401230FE0FB681B689B69BA681340A9
:1058A000BA68D31A5A425341DBB21A00FB1D1B7867
:1058B0009A42CED000231800BD4604B080BD80B50A
:1058C00084B000AFF860B9607A602BE07A68B9689C
:1058D000FB68180000F0DAF8031E01D0012329E06C
:1058E000BB6801331ED0FFF7D9FC02007B68D31AD6
:1058F000BA689A4202D3BB68002B13D1FB685B6C79
:1059000020221A43FB685A64FB68412220219954E3
:10591000FB68422200219954FB68402200219954DF
:10592000012307E0FB681B689B6902221340022BDE
:10593000CCD100231800BD4604B080BD80B584B032
:1059400000AFF860B9607A6028E07A68B968FB68EF
:10595000180000F09BF8031E01D0012326E0FFF79A
:105960009DFC02007B68D31ABA689A4202D3BB68D6
:10597000002B13D1FB685B6C20221A43FB685A642E
:10598000FB68412220219954FB684222002199544E
:10599000FB68402200219954012307E0FB681B6843
:1059A0009B6920221340202BCFD100231800BD4635
:1059B00004B080BD80B584B000AFF860B9607A6093
:1059C00055E07A68B968FB68180000F05FF8031EBC
:1059D00001D0012353E0FB681B689B692022134020
:1059E000202B29D1FB681B689B6904221340042BE0
:1059F00005D1FB681B8D002B01D000233FE0FB6825
:105A00001B682022DA61FB681B685A68FB681B6808
:105A10001D490A405A60FB6800225A64FB68412213
:105A200020219954FB68422200219954FB684022AE
:105A300000219954012322E0FFF730FC02007B682B
:105A4000D31ABA689A4202D3BB68002B0FD1FB6805
:105A50005B6C20221A43FB685A64FB6841222021B8
:105A60009954FB68402200219954012307E0FB6808
:105A70001B689B6904221340042BA2D10023180049
:105A8000BD4604B080BDC04600E800FE80B584B0CD
:105A900000AFF860B9607A60FB681B689B691022F0
:105AA0001340102B64D1FB681B685A6880239B0449
:105AB0001A4080239B049A422BD0FB681B685A68CB
:105AC000FB681B688021C9010A435A6021E0BB685A
:105AD00001331ED0FFF7E2FB02007B68D31ABA68DD
